{
  "contractName": "Cat",
  "abi": [
    {
      "inputs": [],
      "stateMutability": "nonpayable",
      "type": "constructor"
    },
    {
      "anonymous": false,
      "inputs": [
        {
          "indexed": true,
          "internalType": "address",
          "name": "owner",
          "type": "address"
        },
        {
          "indexed": true,
          "internalType": "address",
          "name": "approved",
          "type": "address"
        },
        {
          "indexed": true,
          "internalType": "uint256",
          "name": "tokenId",
          "type": "uint256"
        }
      ],
      "name": "Approval",
      "type": "event"
    },
    {
      "anonymous": false,
      "inputs": [
        {
          "indexed": true,
          "internalType": "address",
          "name": "owner",
          "type": "address"
        },
        {
          "indexed": true,
          "internalType": "address",
          "name": "operator",
          "type": "address"
        },
        {
          "indexed": false,
          "internalType": "bool",
          "name": "approved",
          "type": "bool"
        }
      ],
      "name": "ApprovalForAll",
      "type": "event"
    },
    {
      "anonymous": false,
      "inputs": [
        {
          "indexed": true,
          "internalType": "address",
          "name": "previousOwner",
          "type": "address"
        },
        {
          "indexed": true,
          "internalType": "address",
          "name": "newOwner",
          "type": "address"
        }
      ],
      "name": "OwnershipTransferred",
      "type": "event"
    },
    {
      "anonymous": false,
      "inputs": [
        {
          "indexed": true,
          "internalType": "address",
          "name": "from",
          "type": "address"
        },
        {
          "indexed": true,
          "internalType": "address",
          "name": "to",
          "type": "address"
        },
        {
          "indexed": true,
          "internalType": "uint256",
          "name": "tokenId",
          "type": "uint256"
        }
      ],
      "name": "Transfer",
      "type": "event"
    },
    {
      "inputs": [
        {
          "internalType": "address",
          "name": "to",
          "type": "address"
        },
        {
          "internalType": "uint256",
          "name": "tokenId",
          "type": "uint256"
        }
      ],
      "name": "approve",
      "outputs": [],
      "stateMutability": "nonpayable",
      "type": "function"
    },
    {
      "inputs": [
        {
          "internalType": "address",
          "name": "owner",
          "type": "address"
        }
      ],
      "name": "balanceOf",
      "outputs": [
        {
          "internalType": "uint256",
          "name": "",
          "type": "uint256"
        }
      ],
      "stateMutability": "view",
      "type": "function",
      "constant": true
    },
    {
      "inputs": [
        {
          "internalType": "uint256",
          "name": "tokenId",
          "type": "uint256"
        }
      ],
      "name": "getApproved",
      "outputs": [
        {
          "internalType": "address",
          "name": "",
          "type": "address"
        }
      ],
      "stateMutability": "view",
      "type": "function",
      "constant": true
    },
    {
      "inputs": [
        {
          "internalType": "address",
          "name": "owner",
          "type": "address"
        },
        {
          "internalType": "address",
          "name": "operator",
          "type": "address"
        }
      ],
      "name": "isApprovedForAll",
      "outputs": [
        {
          "internalType": "bool",
          "name": "",
          "type": "bool"
        }
      ],
      "stateMutability": "view",
      "type": "function",
      "constant": true
    },
    {
      "inputs": [],
      "name": "name",
      "outputs": [
        {
          "internalType": "string",
          "name": "",
          "type": "string"
        }
      ],
      "stateMutability": "view",
      "type": "function",
      "constant": true
    },
    {
      "inputs": [],
      "name": "owner",
      "outputs": [
        {
          "internalType": "address",
          "name": "",
          "type": "address"
        }
      ],
      "stateMutability": "view",
      "type": "function",
      "constant": true
    },
    {
      "inputs": [
        {
          "internalType": "uint256",
          "name": "tokenId",
          "type": "uint256"
        }
      ],
      "name": "ownerOf",
      "outputs": [
        {
          "internalType": "address",
          "name": "",
          "type": "address"
        }
      ],
      "stateMutability": "view",
      "type": "function",
      "constant": true
    },
    {
      "inputs": [],
      "name": "renounceOwnership",
      "outputs": [],
      "stateMutability": "nonpayable",
      "type": "function"
    },
    {
      "inputs": [
        {
          "internalType": "address",
          "name": "from",
          "type": "address"
        },
        {
          "internalType": "address",
          "name": "to",
          "type": "address"
        },
        {
          "internalType": "uint256",
          "name": "tokenId",
          "type": "uint256"
        }
      ],
      "name": "safeTransferFrom",
      "outputs": [],
      "stateMutability": "nonpayable",
      "type": "function"
    },
    {
      "inputs": [
        {
          "internalType": "address",
          "name": "from",
          "type": "address"
        },
        {
          "internalType": "address",
          "name": "to",
          "type": "address"
        },
        {
          "internalType": "uint256",
          "name": "tokenId",
          "type": "uint256"
        },
        {
          "internalType": "bytes",
          "name": "_data",
          "type": "bytes"
        }
      ],
      "name": "safeTransferFrom",
      "outputs": [],
      "stateMutability": "nonpayable",
      "type": "function"
    },
    {
      "inputs": [
        {
          "internalType": "address",
          "name": "operator",
          "type": "address"
        },
        {
          "internalType": "bool",
          "name": "approved",
          "type": "bool"
        }
      ],
      "name": "setApprovalForAll",
      "outputs": [],
      "stateMutability": "nonpayable",
      "type": "function"
    },
    {
      "inputs": [
        {
          "internalType": "bytes4",
          "name": "interfaceId",
          "type": "bytes4"
        }
      ],
      "name": "supportsInterface",
      "outputs": [
        {
          "internalType": "bool",
          "name": "",
          "type": "bool"
        }
      ],
      "stateMutability": "view",
      "type": "function",
      "constant": true
    },
    {
      "inputs": [],
      "name": "symbol",
      "outputs": [
        {
          "internalType": "string",
          "name": "",
          "type": "string"
        }
      ],
      "stateMutability": "view",
      "type": "function",
      "constant": true
    },
    {
      "inputs": [
        {
          "internalType": "uint256",
          "name": "tokenId",
          "type": "uint256"
        }
      ],
      "name": "tokenURI",
      "outputs": [
        {
          "internalType": "string",
          "name": "",
          "type": "string"
        }
      ],
      "stateMutability": "view",
      "type": "function",
      "constant": true
    },
    {
      "inputs": [
        {
          "internalType": "address",
          "name": "from",
          "type": "address"
        },
        {
          "internalType": "address",
          "name": "to",
          "type": "address"
        },
        {
          "internalType": "uint256",
          "name": "tokenId",
          "type": "uint256"
        }
      ],
      "name": "transferFrom",
      "outputs": [],
      "stateMutability": "nonpayable",
      "type": "function"
    },
    {
      "inputs": [
        {
          "internalType": "address",
          "name": "newOwner",
          "type": "address"
        }
      ],
      "name": "transferOwnership",
      "outputs": [],
      "stateMutability": "nonpayable",
      "type": "function"
    },
    {
      "inputs": [],
      "name": "purchase",
      "outputs": [],
      "stateMutability": "payable",
      "type": "function",
      "payable": true
    }
  ],
  "bytecode": "0x60806040523480156200001157600080fd5b506040518060400160405280600781526020017f434154204e4654000000000000000000000000000000000000000000000000008152506040518060400160405280600381526020017f4341540000000000000000000000000000000000000000000000000000000000815250816000908051906020019062000096929190620001a6565b508060019080519060200190620000af929190620001a6565b505050620000d2620000c6620000d860201b60201c565b620000e060201b60201c565b620002bb565b600033905090565b6000600760009054906101000a900473ffffffffffffffffffffffffffffffffffffffff16905081600760006101000a81548173ffffffffffffffffffffffffffffffffffffffff021916908373ffffffffffffffffffffffffffffffffffffffff1602179055508173ffffffffffffffffffffffffffffffffffffffff168173ffffffffffffffffffffffffffffffffffffffff167f8be0079c531659141344cd1fd0a4f28419497f9722a3daafe3b4186f6b6457e060405160405180910390a35050565b828054620001b49062000256565b90600052602060002090601f016020900481019282620001d8576000855562000224565b82601f10620001f357805160ff191683800117855562000224565b8280016001018555821562000224579182015b828111156200022357825182559160200191906001019062000206565b5b50905062000233919062000237565b5090565b5b808211156200025257600081600090555060010162000238565b5090565b600060028204905060018216806200026f57607f821691505b602082108114156200028657620002856200028c565b5b50919050565b7f4e487b7100000000000000000000000000000000000000000000000000000000600052602260045260246000fd5b612d3680620002cb6000396000f3fe6080604052600436106100fe5760003560e01c806370a0823111610095578063a22cb46511610064578063a22cb46514610314578063b88d4fde1461033d578063c87b56dd14610366578063e985e9c5146103a3578063f2fde38b146103e0576100fe565b806370a082311461026a578063715018a6146102a75780638da5cb5b146102be57806395d89b41146102e9576100fe565b806323b872dd116100d157806323b872dd146101d157806342842e0e146101fa5780636352211e1461022357806364edfbf014610260576100fe565b806301ffc9a71461010357806306fdde0314610140578063081812fc1461016b578063095ea7b3146101a8575b600080fd5b34801561010f57600080fd5b5061012a60048036038101906101259190611e77565b610409565b604051610137919061267b565b60405180910390f35b34801561014c57600080fd5b506101556104eb565b6040516101629190612696565b60405180910390f35b34801561017757600080fd5b50610192600480360381019061018d9190611ec9565b61057d565b60405161019f9190612614565b60405180910390f35b3480156101b457600080fd5b506101cf60048036038101906101ca9190611e3b565b610602565b005b3480156101dd57600080fd5b506101f860048036038101906101f39190611d35565b61071a565b005b34801561020657600080fd5b50610221600480360381019061021c9190611d35565b61077a565b005b34801561022f57600080fd5b5061024a60048036038101906102459190611ec9565b61079a565b6040516102579190612614565b60405180910390f35b61026861084c565b005b34801561027657600080fd5b50610291600480360381019061028c9190611cd0565b6108f0565b60405161029e91906128d8565b60405180910390f35b3480156102b357600080fd5b506102bc6109a8565b005b3480156102ca57600080fd5b506102d3610a30565b6040516102e09190612614565b60405180910390f35b3480156102f557600080fd5b506102fe610a5a565b60405161030b9190612696565b60405180910390f35b34801561032057600080fd5b5061033b60048036038101906103369190611dff565b610aec565b005b34801561034957600080fd5b50610364600480360381019061035f9190611d84565b610b02565b005b34801561037257600080fd5b5061038d60048036038101906103889190611ec9565b610b64565b60405161039a9190612696565b60405180910390f35b3480156103af57600080fd5b506103ca60048036038101906103c59190611cf9565b610cb6565b6040516103d7919061267b565b60405180910390f35b3480156103ec57600080fd5b5061040760048036038101906104029190611cd0565b610d4a565b005b60007f80ac58cd000000000000000000000000000000000000000000000000000000007bffffffffffffffffffffffffffffffffffffffffffffffffffffffff1916827bffffffffffffffffffffffffffffffffffffffffffffffffffffffff191614806104d457507f5b5e139f000000000000000000000000000000000000000000000000000000007bffffffffffffffffffffffffffffffffffffffffffffffffffffffff1916827bffffffffffffffffffffffffffffffffffffffffffffffffffffffff1916145b806104e457506104e382610e42565b5b9050919050565b6060600080546104fa90612b08565b80601f016020809104026020016040519081016040528092919081815260200182805461052690612b08565b80156105735780601f1061054857610100808354040283529160200191610573565b820191906000526020600020905b81548152906001019060200180831161055657829003601f168201915b5050505050905090565b600061058882610eac565b6105c7576040517f08c379a00000000000000000000000000000000000000000000000000000000081526004016105be90612838565b60405180910390fd5b6004600083815260200190815260200160002060009054906101000a900473ffffffffffffffffffffffffffffffffffffffff169050919050565b600061060d8261079a565b90508073ffffffffffffffffffffffffffffffffffffffff168373ffffffffffffffffffffffffffffffffffffffff16141561067e576040517f08c379a000000000000000000000000000000000000000000000000000000000815260040161067590612898565b60405180910390fd5b8073ffffffffffffffffffffffffffffffffffffffff1661069d610f18565b73ffffffffffffffffffffffffffffffffffffffff1614806106cc57506106cb816106c6610f18565b610cb6565b5b61070b576040517f08c379a000000000000000000000000000000000000000000000000000000000815260040161070290612798565b60405180910390fd5b6107158383610f20565b505050565b61072b610725610f18565b82610fd9565b61076a576040517f08c379a0000000000000000000000000000000000000000000000000000000008152600401610761906128b8565b60405180910390fd5b6107758383836110b7565b505050565b61079583838360405180602001604052806000815250610b02565b505050565b6000806002600084815260200190815260200160002060009054906101000a900473ffffffffffffffffffffffffffffffffffffffff169050600073ffffffffffffffffffffffffffffffffffffffff168173ffffffffffffffffffffffffffffffffffffffff161415610843576040517f08c379a000000000000000000000000000000000000000000000000000000000815260040161083a906127d8565b60405180910390fd5b80915050919050565b600066038d7ea4c6800090508034101561086557600080fd5b61086f600861131e565b600261087b6008611334565b111561088657600080fd5b60006108926008611334565b905061089c610a30565b73ffffffffffffffffffffffffffffffffffffffff166108fc349081150290604051600060405180830381858888f193505050501580156108e1573d6000803e3d6000fd5b506108ec3382611342565b5050565b60008073ffffffffffffffffffffffffffffffffffffffff168273ffffffffffffffffffffffffffffffffffffffff161415610961576040517f08c379a0000000000000000000000000000000000000000000000000000000008152600401610958906127b8565b60405180910390fd5b600360008373ffffffffffffffffffffffffffffffffffffffff1673ffffffffffffffffffffffffffffffffffffffff168152602001908152602001600020549050919050565b6109b0610f18565b73ffffffffffffffffffffffffffffffffffffffff166109ce610a30565b73ffffffffffffffffffffffffffffffffffffffff1614610a24576040517f08c379a0000000000000000000000000000000000000000000000000000000008152600401610a1b90612858565b60405180910390fd5b610a2e600061151c565b565b6000600760009054906101000a900473ffffffffffffffffffffffffffffffffffffffff16905090565b606060018054610a6990612b08565b80601f0160208091040260200160405190810160405280929190818152602001828054610a9590612b08565b8015610ae25780601f10610ab757610100808354040283529160200191610ae2565b820191906000526020600020905b815481529060010190602001808311610ac557829003601f168201915b5050505050905090565b610afe610af7610f18565b83836115e2565b5050565b610b13610b0d610f18565b83610fd9565b610b52576040517f08c379a0000000000000000000000000000000000000000000000000000000008152600401610b49906128b8565b60405180910390fd5b610b5e8484848461174f565b50505050565b6060610b6f82610eac565b610bae576040517f08c379a0000000000000000000000000000000000000000000000000000000008152600401610ba590612818565b60405180910390fd5b6000600660008481526020019081526020016000208054610bce90612b08565b80601f0160208091040260200160405190810160405280929190818152602001828054610bfa90612b08565b8015610c475780601f10610c1c57610100808354040283529160200191610c47565b820191906000526020600020905b815481529060010190602001808311610c2a57829003601f168201915b505050505090506000610c586117ab565b9050600081511415610c6e578192505050610cb1565b600082511115610ca3578082604051602001610c8b9291906125f0565b60405160208183030381529060405292505050610cb1565b610cac846117cb565b925050505b919050565b6000600560008473ffffffffffffffffffffffffffffffffffffffff1673ffffffffffffffffffffffffffffffffffffffff16815260200190815260200160002060008373ffffffffffffffffffffffffffffffffffffffff1673ffffffffffffffffffffffffffffffffffffffff16815260200190815260200160002060009054906101000a900460ff16905092915050565b610d52610f18565b73ffffffffffffffffffffffffffffffffffffffff16610d70610a30565b73ffffffffffffffffffffffffffffffffffffffff1614610dc6576040517f08c379a0000000000000000000000000000000000000000000000000000000008152600401610dbd90612858565b60405180910390fd5b600073ffffffffffffffffffffffffffffffffffffffff168173ffffffffffffffffffffffffffffffffffffffff161415610e36576040517f08c379a0000000000000000000000000000000000000000000000000000000008152600401610e2d906126d8565b60405180910390fd5b610e3f8161151c565b50565b60007f01ffc9a7000000000000000000000000000000000000000000000000000000007bffffffffffffffffffffffffffffffffffffffffffffffffffffffff1916827bffffffffffffffffffffffffffffffffffffffffffffffffffffffff1916149050919050565b60008073ffffffffffffffffffffffffffffffffffffffff166002600084815260200190815260200160002060009054906101000a900473ffffffffffffffffffffffffffffffffffffffff1673ffffffffffffffffffffffffffffffffffffffff1614159050919050565b600033905090565b816004600083815260200190815260200160002060006101000a81548173ffffffffffffffffffffffffffffffffffffffff021916908373ffffffffffffffffffffffffffffffffffffffff160217905550808273ffffffffffffffffffffffffffffffffffffffff16610f938361079a565b73ffffffffffffffffffffffffffffffffffffffff167f8c5be1e5ebec7d5bd14f71427d1e84f3dd0314c0f7b2291e5b200ac8c7c3b92560405160405180910390a45050565b6000610fe482610eac565b611023576040517f08c379a000000000000000000000000000000000000000000000000000000000815260040161101a90612778565b60405180910390fd5b600061102e8361079a565b90508073ffffffffffffffffffffffffffffffffffffffff168473ffffffffffffffffffffffffffffffffffffffff161480611070575061106f8185610cb6565b5b806110ae57508373ffffffffffffffffffffffffffffffffffffffff166110968461057d565b73ffffffffffffffffffffffffffffffffffffffff16145b91505092915050565b8273ffffffffffffffffffffffffffffffffffffffff166110d78261079a565b73ffffffffffffffffffffffffffffffffffffffff161461112d576040517f08c379a0000000000000000000000000000000000000000000000000000000008152600401611124906126f8565b60405180910390fd5b600073ffffffffffffffffffffffffffffffffffffffff168273ffffffffffffffffffffffffffffffffffffffff16141561119d576040517f08c379a000000000000000000000000000000000000000000000000000000000815260040161119490612738565b60405180910390fd5b6111a8838383611872565b6111b3600082610f20565b6001600360008573ffffffffffffffffffffffffffffffffffffffff1673ffffffffffffffffffffffffffffffffffffffff16815260200190815260200160002060008282546112039190612a1e565b925050819055506001600360008473ffffffffffffffffffffffffffffffffffffffff1673ffffffffffffffffffffffffffffffffffffffff168152602001908152602001600020600082825461125a9190612997565b92505081905550816002600083815260200190815260200160002060006101000a81548173ffffffffffffffffffffffffffffffffffffffff021916908373ffffffffffffffffffffffffffffffffffffffff160217905550808273ffffffffffffffffffffffffffffffffffffffff168473ffffffffffffffffffffffffffffffffffffffff167fddf252ad1be2c89b69c2b068fc378daa952ba7f163c4a11628f55a4df523b3ef60405160405180910390a4611319838383611877565b505050565b6001816000016000828254019250508190555050565b600081600001549050919050565b600073ffffffffffffffffffffffffffffffffffffffff168273ffffffffffffffffffffffffffffffffffffffff1614156113b2576040517f08c379a00000000000000000000000000000000000000000000000000000000081526004016113a9906127f8565b60405180910390fd5b6113bb81610eac565b156113fb576040517f08c379a00000000000000000000000000000000000000000000000000000000081526004016113f290612718565b60405180910390fd5b61140760008383611872565b6001600360008473ffffffffffffffffffffffffffffffffffffffff1673ffffffffffffffffffffffffffffffffffffffff16815260200190815260200160002060008282546114579190612997565b92505081905550816002600083815260200190815260200160002060006101000a81548173ffffffffffffffffffffffffffffffffffffffff021916908373ffffffffffffffffffffffffffffffffffffffff160217905550808273ffffffffffffffffffffffffffffffffffffffff16600073ffffffffffffffffffffffffffffffffffffffff167fddf252ad1be2c89b69c2b068fc378daa952ba7f163c4a11628f55a4df523b3ef60405160405180910390a461151860008383611877565b5050565b6000600760009054906101000a900473ffffffffffffffffffffffffffffffffffffffff16905081600760006101000a81548173ffffffffffffffffffffffffffffffffffffffff021916908373ffffffffffffffffffffffffffffffffffffffff1602179055508173ffffffffffffffffffffffffffffffffffffffff168173ffffffffffffffffffffffffffffffffffffffff167f8be0079c531659141344cd1fd0a4f28419497f9722a3daafe3b4186f6b6457e060405160405180910390a35050565b8173ffffffffffffffffffffffffffffffffffffffff168373ffffffffffffffffffffffffffffffffffffffff161415611651576040517f08c379a000000000000000000000000000000000000000000000000000000000815260040161164890612758565b60405180910390fd5b80600560008573ffffffffffffffffffffffffffffffffffffffff1673ffffffffffffffffffffffffffffffffffffffff16815260200190815260200160002060008473ffffffffffffffffffffffffffffffffffffffff1673ffffffffffffffffffffffffffffffffffffffff16815260200190815260200160002060006101000a81548160ff0219169083151502179055508173ffffffffffffffffffffffffffffffffffffffff168373ffffffffffffffffffffffffffffffffffffffff167f17307eab39ab6107e8899845ad3d59bd9653f200f220920489ca2b5937696c3183604051611742919061267b565b60405180910390a3505050565b61175a8484846110b7565b6117668484848461187c565b6117a5576040517f08c379a000000000000000000000000000000000000000000000000000000000815260040161179c906126b8565b60405180910390fd5b50505050565b6060604051806060016040528060238152602001612cde60239139905090565b60606117d682610eac565b611815576040517f08c379a000000000000000000000000000000000000000000000000000000000815260040161180c90612878565b60405180910390fd5b600061181f6117ab565b9050600081511161183f576040518060200160405280600081525061186a565b8061184984611a13565b60405160200161185a9291906125f0565b6040516020818303038152906040525b915050919050565b505050565b505050565b600061189d8473ffffffffffffffffffffffffffffffffffffffff16611bc0565b15611a06578373ffffffffffffffffffffffffffffffffffffffff1663150b7a026118c6610f18565b8786866040518563ffffffff1660e01b81526004016118e8949392919061262f565b602060405180830381600087803b15801561190257600080fd5b505af192505050801561193357506040513d601f19601f820116820180604052508101906119309190611ea0565b60015b6119b6573d8060008114611963576040519150601f19603f3d011682016040523d82523d6000602084013e611968565b606091505b506000815114156119ae576040517f08c379a00000000000000000000000000000000000000000000000000000000081526004016119a5906126b8565b60405180910390fd5b805181602001fd5b63150b7a0260e01b7bffffffffffffffffffffffffffffffffffffffffffffffffffffffff1916817bffffffffffffffffffffffffffffffffffffffffffffffffffffffff191614915050611a0b565b600190505b949350505050565b60606000821415611a5b576040518060400160405280600181526020017f30000000000000000000000000000000000000000000000000000000000000008152509050611bbb565b600082905060005b60008214611a8d578080611a7690612b3a565b915050600a82611a8691906129ed565b9150611a63565b60008167ffffffffffffffff811115611acf577f4e487b7100000000000000000000000000000000000000000000000000000000600052604160045260246000fd5b6040519080825280601f01601f191660200182016040528015611b015781602001600182028036833780820191505090505b5090505b60008514611bb457600182611b1a9190612a1e565b9150600a85611b299190612b83565b6030611b359190612997565b60f81b818381518110611b71577f4e487b7100000000000000000000000000000000000000000000000000000000600052603260045260246000fd5b60200101907effffffffffffffffffffffffffffffffffffffffffffffffffffffffffffff1916908160001a905350600a85611bad91906129ed565b9450611b05565b8093505050505b919050565b6000808273ffffffffffffffffffffffffffffffffffffffff16803b806020016040519081016040528181526000908060200190933c51119050919050565b6000611c12611c0d84612924565b6128f3565b905082815260208101848484011115611c2a57600080fd5b611c35848285612ac6565b509392505050565b600081359050611c4c81612c81565b92915050565b600081359050611c6181612c98565b92915050565b600081359050611c7681612caf565b92915050565b600081519050611c8b81612caf565b92915050565b600082601f830112611ca257600080fd5b8135611cb2848260208601611bff565b91505092915050565b600081359050611cca81612cc6565b92915050565b600060208284031215611ce257600080fd5b6000611cf084828501611c3d565b91505092915050565b60008060408385031215611d0c57600080fd5b6000611d1a85828601611c3d565b9250506020611d2b85828601611c3d565b9150509250929050565b600080600060608486031215611d4a57600080fd5b6000611d5886828701611c3d565b9350506020611d6986828701611c3d565b9250506040611d7a86828701611cbb565b9150509250925092565b60008060008060808587031215611d9a57600080fd5b6000611da887828801611c3d565b9450506020611db987828801611c3d565b9350506040611dca87828801611cbb565b925050606085013567ffffffffffffffff811115611de757600080fd5b611df387828801611c91565b91505092959194509250565b60008060408385031215611e1257600080fd5b6000611e2085828601611c3d565b9250506020611e3185828601611c52565b9150509250929050565b60008060408385031215611e4e57600080fd5b6000611e5c85828601611c3d565b9250506020611e6d85828601611cbb565b9150509250929050565b600060208284031215611e8957600080fd5b6000611e9784828501611c67565b91505092915050565b600060208284031215611eb257600080fd5b6000611ec084828501611c7c565b91505092915050565b600060208284031215611edb57600080fd5b6000611ee984828501611cbb565b91505092915050565b611efb81612a52565b82525050565b611f0a81612a64565b82525050565b6000611f1b82612954565b611f25818561296a565b9350611f35818560208601612ad5565b611f3e81612c70565b840191505092915050565b6000611f548261295f565b611f5e818561297b565b9350611f6e818560208601612ad5565b611f7781612c70565b840191505092915050565b6000611f8d8261295f565b611f97818561298c565b9350611fa7818560208601612ad5565b80840191505092915050565b6000611fc060328361297b565b91507f4552433732313a207472616e7366657220746f206e6f6e20455243373231526560008301527f63656976657220696d706c656d656e74657200000000000000000000000000006020830152604082019050919050565b600061202660268361297b565b91507f4f776e61626c653a206e6577206f776e657220697320746865207a65726f206160008301527f64647265737300000000000000000000000000000000000000000000000000006020830152604082019050919050565b600061208c60258361297b565b91507f4552433732313a207472616e736665722066726f6d20696e636f72726563742060008301527f6f776e65720000000000000000000000000000000000000000000000000000006020830152604082019050919050565b60006120f2601c8361297b565b91507f4552433732313a20746f6b656e20616c7265616479206d696e746564000000006000830152602082019050919050565b600061213260248361297b565b91507f4552433732313a207472616e7366657220746f20746865207a65726f2061646460008301527f72657373000000000000000000000000000000000000000000000000000000006020830152604082019050919050565b600061219860198361297b565b91507f4552433732313a20617070726f766520746f2063616c6c6572000000000000006000830152602082019050919050565b60006121d8602c8361297b565b91507f4552433732313a206f70657261746f7220717565727920666f72206e6f6e657860008301527f697374656e7420746f6b656e00000000000000000000000000000000000000006020830152604082019050919050565b600061223e60388361297b565b91507f4552433732313a20617070726f76652063616c6c6572206973206e6f74206f7760008301527f6e6572206e6f7220617070726f76656420666f7220616c6c00000000000000006020830152604082019050919050565b60006122a4602a8361297b565b91507f4552433732313a2062616c616e636520717565727920666f7220746865207a6560008301527f726f2061646472657373000000000000000000000000000000000000000000006020830152604082019050919050565b600061230a60298361297b565b91507f4552433732313a206f776e657220717565727920666f72206e6f6e657869737460008301527f656e7420746f6b656e00000000000000000000000000000000000000000000006020830152604082019050919050565b600061237060208361297b565b91507f4552433732313a206d696e7420746f20746865207a65726f20616464726573736000830152602082019050919050565b60006123b060318361297b565b91507f45524337323155524953746f726167653a2055524920717565727920666f722060008301527f6e6f6e6578697374656e7420746f6b656e0000000000000000000000000000006020830152604082019050919050565b6000612416602c8361297b565b91507f4552433732313a20617070726f76656420717565727920666f72206e6f6e657860008301527f697374656e7420746f6b656e00000000000000000000000000000000000000006020830152604082019050919050565b600061247c60208361297b565b91507f4f776e61626c653a2063616c6c6572206973206e6f7420746865206f776e65726000830152602082019050919050565b60006124bc602f8361297b565b91507f4552433732314d657461646174613a2055524920717565727920666f72206e6f60008301527f6e6578697374656e7420746f6b656e00000000000000000000000000000000006020830152604082019050919050565b600061252260218361297b565b91507f4552433732313a20617070726f76616c20746f2063757272656e74206f776e6560008301527f72000000000000000000000000000000000000000000000000000000000000006020830152604082019050919050565b600061258860318361297b565b91507f4552433732313a207472616e736665722063616c6c6572206973206e6f74206f60008301527f776e6572206e6f7220617070726f7665640000000000000000000000000000006020830152604082019050919050565b6125ea81612abc565b82525050565b60006125fc8285611f82565b91506126088284611f82565b91508190509392505050565b60006020820190506126296000830184611ef2565b92915050565b60006080820190506126446000830187611ef2565b6126516020830186611ef2565b61265e60408301856125e1565b81810360608301526126708184611f10565b905095945050505050565b60006020820190506126906000830184611f01565b92915050565b600060208201905081810360008301526126b08184611f49565b905092915050565b600060208201905081810360008301526126d181611fb3565b9050919050565b600060208201905081810360008301526126f181612019565b9050919050565b600060208201905081810360008301526127118161207f565b9050919050565b60006020820190508181036000830152612731816120e5565b9050919050565b6000602082019050818103600083015261275181612125565b9050919050565b600060208201905081810360008301526127718161218b565b9050919050565b60006020820190508181036000830152612791816121cb565b9050919050565b600060208201905081810360008301526127b181612231565b9050919050565b600060208201905081810360008301526127d181612297565b9050919050565b600060208201905081810360008301526127f1816122fd565b9050919050565b6000602082019050818103600083015261281181612363565b9050919050565b60006020820190508181036000830152612831816123a3565b9050919050565b6000602082019050818103600083015261285181612409565b9050919050565b600060208201905081810360008301526128718161246f565b9050919050565b60006020820190508181036000830152612891816124af565b9050919050565b600060208201905081810360008301526128b181612515565b9050919050565b600060208201905081810360008301526128d18161257b565b9050919050565b60006020820190506128ed60008301846125e1565b92915050565b6000604051905081810181811067ffffffffffffffff8211171561291a57612919612c41565b5b8060405250919050565b600067ffffffffffffffff82111561293f5761293e612c41565b5b601f19601f8301169050602081019050919050565b600081519050919050565b600081519050919050565b600082825260208201905092915050565b600082825260208201905092915050565b600081905092915050565b60006129a282612abc565b91506129ad83612abc565b9250827fffffffffffffffffffffffffffffffffffffffffffffffffffffffffffffffff038211156129e2576129e1612bb4565b5b828201905092915050565b60006129f882612abc565b9150612a0383612abc565b925082612a1357612a12612be3565b5b828204905092915050565b6000612a2982612abc565b9150612a3483612abc565b925082821015612a4757612a46612bb4565b5b828203905092915050565b6000612a5d82612a9c565b9050919050565b60008115159050919050565b60007fffffffff0000000000000000000000000000000000000000000000000000000082169050919050565b600073ffffffffffffffffffffffffffffffffffffffff82169050919050565b6000819050919050565b82818337600083830152505050565b60005b83811015612af3578082015181840152602081019050612ad8565b83811115612b02576000848401525b50505050565b60006002820490506001821680612b2057607f821691505b60208210811415612b3457612b33612c12565b5b50919050565b6000612b4582612abc565b91507fffffffffffffffffffffffffffffffffffffffffffffffffffffffffffffffff821415612b7857612b77612bb4565b5b600182019050919050565b6000612b8e82612abc565b9150612b9983612abc565b925082612ba957612ba8612be3565b5b828206905092915050565b7f4e487b7100000000000000000000000000000000000000000000000000000000600052601160045260246000fd5b7f4e487b7100000000000000000000000000000000000000000000000000000000600052601260045260246000fd5b7f4e487b7100000000000000000000000000000000000000000000000000000000600052602260045260246000fd5b7f4e487b7100000000000000000000000000000000000000000000000000000000600052604160045260246000fd5b6000601f19601f8301169050919050565b612c8a81612a52565b8114612c9557600080fd5b50565b612ca181612a64565b8114612cac57600080fd5b50565b612cb881612a70565b8114612cc357600080fd5b50565b612ccf81612abc565b8114612cda57600080fd5b5056fe68747470733a2f2f6361746e667470726f6a6563742e6865726f6b756170702e636f6da264697066735822122043de6805bab80d1713a92e5c8738fd37f03319bf300924ce00fa104f4877f92b64736f6c63430008000033",
  "immutableReferences": {},
  "source": "//SPDX-License-Identifier: MIT\npragma solidity ^0.8.0;\nimport \"@openzeppelin/contracts/token/ERC721/extensions/ERC721URIStorage.sol\";\nimport \"@openzeppelin/contracts/utils/Counters.sol\";\nimport \"@openzeppelin/contracts/access/Ownable.sol\";\n\ncontract Cat is ERC721URIStorage,Ownable {\n    using Counters for Counters.Counter;\n    Counters.Counter private _tokenIds;\n   \n    \n    constructor() ERC721(\"CAT NFT\", \"CAT\")  {\n        \n    }\n\n    function purchase() payable public {\n        uint256 price=0.001 ether;\n        require(msg.value>=price);\n        _tokenIds.increment();\n        require(_tokenIds.current()<=2);\n        uint256 newItemId = _tokenIds.current();\n        payable(owner()).transfer(msg.value);\n        _mint(msg.sender, newItemId);       \n    }\n    function _baseURI() internal pure override returns (string memory)  {\n        return 'https://catnftproject.herokuapp.com';\n    }    \n}",
  "sourcePath": "C:\\Users\\Yash Kumar\\Desktop\\NFT\\contracts\\Cat.sol",
  "compiler": {
    "name": "solc",
    "version": "0.8.0+commit.c7dfd78e.Emscripten.clang"
  },
  "schemaVersion": "3.4.4",
  "updatedAt": "2022-08-06T08:01:31.400Z",
  "networkType": "ethereum",
  "devdoc": {
    "kind": "dev",
    "methods": {
      "approve(address,uint256)": {
        "details": "See {IERC721-approve}."
      },
      "balanceOf(address)": {
        "details": "See {IERC721-balanceOf}."
      },
      "getApproved(uint256)": {
        "details": "See {IERC721-getApproved}."
      },
      "isApprovedForAll(address,address)": {
        "details": "See {IERC721-isApprovedForAll}."
      },
      "name()": {
        "details": "See {IERC721Metadata-name}."
      },
      "owner()": {
        "details": "Returns the address of the current owner."
      },
      "ownerOf(uint256)": {
        "details": "See {IERC721-ownerOf}."
      },
      "renounceOwnership()": {
        "details": "Leaves the contract without owner. It will not be possible to call `onlyOwner` functions anymore. Can only be called by the current owner. NOTE: Renouncing ownership will leave the contract without an owner, thereby removing any functionality that is only available to the owner."
      },
      "safeTransferFrom(address,address,uint256)": {
        "details": "See {IERC721-safeTransferFrom}."
      },
      "safeTransferFrom(address,address,uint256,bytes)": {
        "details": "See {IERC721-safeTransferFrom}."
      },
      "setApprovalForAll(address,bool)": {
        "details": "See {IERC721-setApprovalForAll}."
      },
      "supportsInterface(bytes4)": {
        "details": "See {IERC165-supportsInterface}."
      },
      "symbol()": {
        "details": "See {IERC721Metadata-symbol}."
      },
      "tokenURI(uint256)": {
        "details": "See {IERC721Metadata-tokenURI}."
      },
      "transferFrom(address,address,uint256)": {
        "details": "See {IERC721-transferFrom}."
      },
      "transferOwnership(address)": {
        "details": "Transfers ownership of the contract to a new account (`newOwner`). Can only be called by the current owner."
      }
    },
    "version": 1
  },
  "userdoc": {
    "kind": "user",
    "methods": {},
    "version": 1
  }
}